:020000040800F2
:1000000090060020650300086D0300086F030008D8
:100010007103000873030008750300080000000066
:10002000000000000000000000000000770300084E
:1000300079030008000000007B0300087D0300082E
:100040007F0300087F0300087F0300087F03000888
:100050007F0300087F0300087F0300087F03000878
:100060007F0300087F0300087F0300087F03000868
:100070007F0300087F0300087F0300087F03000858
:100080007F0300087F0300087F0300087F03000848
:100090007F0300087F0300087F0300087F03000838
:1000A0007F0300087F0300087F0300087F03000828
:1000B0007F0300087F0300087F0300087F03000818
:1000C0007F0300087F0300087F0300087F03000808
:1000D0007F0300087F0300087F0300087F030008F8
:1000E0007F0300087F0300087F03000800F002F888
:1000F00000F03AF80AA090E8000C82448344AAF188
:100100000107DA4501D100F02FF8AFF2090EBAE885
:100110000F0013F0010F18BFFB1A43F0010318473B
:10012000AC130000CC130000103A24BF78C878C18B
:10013000FAD8520724BF30C830C144BF04680C60ED
:10014000704700000023002400250026103A28BF35
:1001500078C1FBD8520728BF30C148BF0B60704739
:100160001FB51FBD10B510BD01F08BF81146FFF78C
:10017000F7FF00F02FFD01F0A9F803B4FFF7F2FF3D
:1001800003BC01F0ADF800000CB500200190009018
:100190006B48006840F480306949086000BF6848D7
:1001A000006800F4003000900198401C0190009815
:1001B00018B90198B0F5A06FF1D16148006810F44A
:1001C000003F02D00120009001E000200090009844
:1001D000012842D15B48006840F01000594908608E
:1001E0000846006820F0030008600846006840F0F8
:1001F000020008605248406851494860084640681B
:1002000048600846406840F480604860084640689E
:1002100020F47C1048600846406840F4E8104860CC
:100220000846006840F08070086000BF44480068DD
:1002300010F0007FFAD04248406820F003004049A7
:1002400048600846406840F00200486000BF3C48F3
:10025000406800F00C000828F9D10CBD10B5FFF77C
:1002600093FF10BD10B53648006840F001003449D6
:1002700008600846406834490840314948600846EB
:100280000068324908402E4908600846006820F49A
:10029000802008600846406820F4FE0048604FF463
:1002A0001F008860FFF7DAFF4FF000602849086000
:1002B00010BD10B5002100200022214B5B6803F027
:1002C0000C0121B1042906D0082928D107E0214BCF
:1002D000214C236027E01F4B1F4C236023E0184B69
:1002E0005B6803F47010164B5B6803F480320223E2
:1002F00003EB904022B9194B4343174C23600DE0A8
:100300000F4B5B6813F4003F04D0144B4343124C73
:10031000236003E00F4B43430F4C236003E00D4B7E
:100320000D4C236000BF00BF054B5B68C3F3031394
:100330000B4CE15C084B1B68CB40074C236010BDA5
:1003400000100240002002400000FFF8FFFFF6FE10
:1003500008ED00E000127A000000002000093D00D6
:10036000040000200948804709480047FEE7FEE7EF
:10037000FEE7FEE7FEE7FEE7FEE7FEE7FEE7FEE755
:1003800004480549054A064B70470000650200080D
:10039000ED00000890000020900600209002002050
:1003A0009002002010B50446CA48844208D10121B9
:1003B000042000F027FB0021042000F023FB46E08E
:1003C000C548844208D10121082000F01BFB002110
:1003D000082000F017FB3AE0C048844208D1012110
:1003E000102000F00FFB0021102000F00BFB2EE08E
:1003F000BB48844208D10121202000F003FB0021EA
:10040000202000F0FFFA22E0B648844208D1012102
:10041000402000F0F7FA0021402000F0F3FA16E047
:10042000B148844208D10121802000F0EBFA00217C
:10043000802000F0E7FA0AE0AC48844207D10121AD
:10044000801500F0DFFA0021A01500F0DBFA10BDE6
:1004500010B50121084600F0D5FA0021012000F076
:10046000D1FA10BD2DE9F0410246002500260020FA
:1004700000230024002791F803C00CF00F0591F829
:1004800003C01CF0100F03D091F802C04CEA050520
:1004900091F800C0BCF1000F31D0146800202BE0AF
:1004A0004FF0010C0CFA00F3B1F800C00CEA03069F
:1004B0009E4220D183004FF00F0C0CFA03F7BC438F
:1004C00005FA03FC4CEA040491F803C0BCF1280FC0
:1004D00006D14FF0010C0CFA00FCC2F814C00AE07F
:1004E00091F803C0BCF1480F05D14FF0010C0CFA94
:1004F00000FCC2F810C0401C0828D1D31460B1F829
:1005000000C0BCF1FF0F34DD546800202EE000F184
:10051000080C4FF0010808FA0CF3B1F800C00CEA1F
:1005200003069E4221D183004FF00F0C0CFA03F713
:10053000BC4305FA03FC4CEA040491F803C0BCF187
:10054000280F05D100F1080C08FA0CF8C2F8148045
:1005500091F803C0BCF1480F07D100F1080C4FF02F
:10056000010808FA0CF8C2F81080401C0828CED305
:100570005460BDE8F0814FF6FF7101800221817067
:100580000421C17070470246002093680B4201D0DD
:10059000012000E0002070470146886880B2704763
:1005A00002460020D3680B4201D0012000E0002069
:1005B00070470146C86880B2704701617047416169
:1005C00070470AB1016100E041617047C160704746
:1005D0004FF480320A43826181618261826982695B
:1005E000704702460020424B18684FF6807318404F
:1005F00040EA021008433E4B186070473D49C8610D
:100600007047F0B50A46002300240021002500F0C1
:100610000046B6F1004F02D1354EF16901E0344E8B
:100620007168C0F3034583B200F44016B6F5401F6D
:1006300008D121F070612E4E766826F070662C4F3E
:100640007E6012E000F48016B6F5801F06D1032606
:1006500006FA05F4A14341F0706106E0460D36014B
:1006600003FA06F6B14341F0706122B1460D36013E
:1006700003FA06F6314300F00046B6F1004F02D10E
:100680001B4EF16101E01A4E7160F0BD30B50022E1
:100690008B071C0F0F2303FA04F2154B08338C1041
:1006A00053F824309343124C08348D1044F825300D
:1006B00023468C1053F824308C07240F00FA04F4DE
:1006C00023430B4C08348D1044F8253030BD0A49C3
:1006D0000860704700080140000C01400010014014
:1006E0000014014000180140001C0140002001409E
:1006F0000000014000002042DC002042DD4800688C
:1007000040F00100DB49086008464068DA490840CB
:10071000D849486008460068D8490840D54908606B
:100720000846006820F4802008600846406820F4ED
:10073000FE0048604FF41F0088607047CD4909688B
:1007400021F48031CB4A11601146096821F48021DF
:100750001160B0F5803F03D0B0F5802F0ED106E0D8
:10076000C449096841F48031C24A116007E0C149B7
:10077000096841F4A021BF4A116000E000BF00BF3A
:10078000704710B501460022002300204A11012ABB
:1007900002D1B84C236806E0022A02D1B54C236A84
:1007A00001E0B44C636A01F01F02012494401C4232
:1007B00001D0012000E0002010BD38B500200090DD
:1007C0000024002500BF3120FFF7DBFF054600981D
:1007D000401C00900098B0F5A06F01D0002DF2D021
:1007E0003120FFF7CEFF08B1012400E000242046AD
:1007F00038BD014600209F4A106820F0F80040EA0A
:10080000C100106070479E49086070470246002092
:10081000984B586820F47C1042EA01031843954B2A
:100820005860704796490866704701460020914A13
:10083000506820F003000843506070478D484068BE
:1008400000F00C007047014600208A4A506820F0F2
:10085000F00008435060704701460020854A506808
:1008600020F4E06008435060704701460020814A50
:10087000506820F4605040EAC1005060704729B1D0
:100880007C4A527A02437B4B5A7204E0794A527A8C
:100890008243784B5A7270477A4908607047014624
:1008A0000020744A506820F440400843506070476C
:1008B0000021754A11706F4A82F82010012802D079
:1008C000042808D103E001216F4A117004E00521DA
:1008D0006D4A117000E000BF00BF70476B490860AF
:1008E00070476449096A0143624A11627047674967
:1008F00044390860704730B50021002200240023ED
:100900005C4D6D6805F00C0121B1042905D0082962
:1009100023D105E05E4D056022E05D4D05601FE0DE
:10092000544D6D6805F47012524D6D6805F48034B5
:10093000022505EB92421CB9564D554305600BE06C
:100940004C4D6D6815F4003F03D0524D5543056082
:1009500002E04F4D5543056002E04D4D056000BF7C
:1009600000BF444D6D6805F0F00109094A4D6B5C0C
:100970000568DD4045603F4D6D6805F4E061090A9A
:10098000454D6B5C4568DD4085603A4D6D6805F40A
:100990006051C90A404D6B5C4568DD40C560354D0E
:1009A0006D6805F44041890B3C4D6B5CC568B5FB37
:1009B000F3F5056130BD29B12E4A526902432D4B32
:1009C0005A6104E02B4A526982432A4B5A617047AC
:1009D00029B1284A92690243264B9A6104E0254ACC
:1009E00092698243234B9A61704729B1214AD269A7
:1009F0000243204BDA6104E01E4AD26982431D4B58
:100A0000DA61704729B11B4AD2680243194BDA6098
:100A100004E0184AD2688243164BDA60704729B165
:100A2000144A12690243134B1A6104E0114A126915
:100A30008243104B1A61704714494039086070476F
:100A40000F49C86470470B49C87170470948406A2C
:100A500040F0807007494862704701460020054A0F
:100A600092680A4201D0012000E00020704701494D
:100A700088727047001002400000FFF8FFFFF6FE8A
:100A800000004242D800424220100240800442420C
:100A900000127A0000093D0014000020240000200C
:100AA0004FF0E021096921F004014FF0E0221161CB
:100AB000C21700EB5272C2F3C702224B1A701946DA
:100AC000097801EB4102C2EBC1114FF6FF7202EA55
:100AD000C1011D4A1180704701461B4A12884A43D2
:100AE0004FF0E0235A6100229A6101221A6100BF8F
:100AF0004FF0E022106910F0010F02D010F4803F97
:100B0000F6D000224FF0E0231A619A617047014647
:100B10000C4A12784A434FF0E0235A6100229A614E
:100B200001221A6100BF4FF0E022106910F0010F9E
:100B300002D010F4803FF6D000224FF0E0231A617B
:100B40009A617047280000202A00002008B5012182
:100B50000846FFF73DFF01211B48FFF752FD012129
:100B60000420FFF735FF4FF6FF70ADF800001020AE
:100B70008DF8030003208DF8020069461348FFF743
:100B800071FC01210820FFF723FF4FF6FF70ADF83D
:100B9000000010208DF8030003208DF80200694644
:100BA0000B48FFF75FFC08BDF8B506460C46154636
:100BB000ADF800408DF8035003208DF8020069461F
:100BC0003046FFF74FFCF8BD00043000000801403C
:100BD000000C014008B5FFF745FBFFF7B7FF4820C1
:100BE000FFF75EFF3F2000F074F80120034604A2E7
:100BF0000A210090084600F0BDFA00BFFEE70000A1
:100C00004E677579656E20517579204E6861740064
:100C100070B504460D46012C02D1FE49086002E081
:100C20000120FD4908604FF00000FC4908604FF0CA
:100C300010024FF0FF01FA48FFF7B6FFF8480C30FA
:100C4000006845F47F410840F5490C3108600120F7
:100C5000FFF75DFF0120F349C1F8B8010220FFF75B
:100C600056FF0020F0490860EB490860E949086038
:100C700070BD70B50546002428E00020EB490860EF
:100C80004FF04001FFF7C4FF40210120FFF7C0FFF4
:100C900044F040010020FFF7BBFF44F04001012079
:100CA000FFF7B6FF0120DF49C1F8B001002609E0D7
:100CB00029460020FFF7ACFF29460120FFF7A8FFD7
:100CC000701CC6B2402EF3DB601CC4B2082CD4DB0F
:100CD00070BD10B504460020D3490860D149C1F861
:100CE000A801CC490860CF49C1F8B0014FF0C0015C
:100CF000FFF78EFFC0210120FFF78AFF402100206F
:100D0000FFF786FF40210120FFF782FFB821002076
:100D1000FFF77EFFB8210120FFF77AFF2146002070
:100D2000FFF776FF21460120FFF772FF0020FFF753
:100D3000A0FF10BD70B5044600254822FF21B84829
:100D4000FFF732FF0120B5490860012C02D1B149FB
:100D5000086002E00120B04908604FF00100FFF791
:100D6000D6FE0120B04908604FF00200FFF7CFFE29
:100D7000AB4808300068C5B20020AA49C1F8B801E4
:100D8000A5490860A749C1F8AC014FF010024FF027
:100D9000FF01A348FFF708FF284670BD2DE9F04783
:100DA00005460C4690464FF00009C5F13F00C5B21C
:100DB000C4F17F00C4B23F2D04DDA5F14000C5B2EF
:100DC0004FF0010900209949086005F07F0545F0C2
:100DD000400529464846FFF71BFFA246E01704EBF3
:100DE0005070C01000F0BF0040F0B8014846FFF757
:100DF0000FFF01208B49C1F8B0014846FFF79AFF69
:100E00004846FFF797FF0646B8F1010F0CD10127BE
:100E10002046E11704EB5171C910A4EBC10107FA98
:100E200001F1CFB23E430BE001272046E11704EB6E
:100E30005171C910A4EBC10107FA01F1CFB23E40D4
:100E400000207A49086029464846FFF7E1FE012064
:100E50007449C1F8B00131464846FFF7D9FEBDE8F4
:100E6000F0872DE9FE4F0746884691469A460120B5
:100E700002900190002000904F4504DDA7EB090689
:100E8000401E029001E0A9EB0706D04505DDA8EB66
:100E90000A054FF0FF30019001E0AAEB0805AE42D1
:100EA00025DB6D00A81B04B2A01B0FFA80FB1AE023
:100EB000414638460C9AFFF771FF002C05DA60199D
:100EC00004B202983844C7B209E004EB0B0004B244
:100ED00002983844C7B20198404400F0FF080098D7
:100EE000401CC0B200900098B042E1DD25E07600E1
:100EF000701B04B2601B0FFA80FB1BE041463846B2
:100F00000C9AFFF74BFF002C06DAA01904B20198E7
:100F1000404400F0FF0809E004EB0B0004B2029823
:100F20003844C7B20198404400F0FF080098401CC4
:100F3000C0B200900098A842E0DDBDE8FE8F2DE928
:100F4000FC5F04460D4616461F46DDF834800C98BB
:100F5000012824D1B44202DAA146B34601E0B146E9
:100F6000A346BD4202DA0195009701E00197009582
:100F700012E0DDF804A008E0424651464846FFF77B
:100F80000DFF0AF1010000F0FF0A00988245F3DD31
:100F900009F1010000F0FF09D945EADD1FE02B4609
:100FA000324629462046CDF80080FFF75AFF3B46DF
:100FB000324639462046CDF80080FFF752FF3B46C7
:100FC000224629462046CDF80080FFF74AFF3B46DF
:100FD000324629463046CDF80080FFF742FFBDE893
:100FE000FC9F2DE9F84F06460F4691469B46DDF8DB
:100FF000288000244FFA89F5C9F101004FFA80FAE0
:1010000000BFBBF1010F60D107EB050C0CF0FF0333
:101010000EE00000AC812142A8812142B48121422E
:101020000008014000802142B8812142B081214264
:1010300006EB040C0CF0FF0207EB050C0CF0FF01B3
:10104000A6EB040C0CF0FF00CDF80080FFF709FFC1
:10105000A7EB050C0CF0FF0306EB040C0CF0FF02F1
:10106000A7EB050C0CF0FF01A6EB040C0CF0FF0045
:10107000CDF80080FFF7F5FE07EB040C0CF0FF0342
:1010800006EB050C0CF0FF0207EB040C0CF0FF0163
:10109000A6EB050C0CF0FF00CDF80080FFF7E1FE99
:1010A000A7EB040C0CF0FF0306EB050C0CF0FF02A1
:1010B000A7EB040C0CF0FF01A6EB050C0CF0FF00F5
:1010C000CDF80080FFF7CDFE37E0EA19D1B2A219C2
:1010D000D0B24246FFF762FEE219D1B2AA19D0B2ED
:1010E0004246FFF75BFEEA19D1B2321BD0B242464C
:1010F000FFF754FEE219D1B2721BD0B24246FFF79D
:101100004DFE3A1BD1B2AA19D0B24246FFF746FEB5
:101110007A1BD1B2A219D0B24246FFF73FFE7A1B2A
:10112000D1B2321BD0B24246FFF738FE3A1BD1B2E1
:10113000721BD0B24246FFF731FEBAF1000F08DA57
:101140002046611C4CB24000C01C50444FFA80FA4B
:101150000BE02046611C4CB229466A1E55B2401A6B
:101160004000401D50444FFA80FAAC427FF749AF2F
:10117000BDE8F88F2DE9FF5F05460F4616461C4671
:1011800074E04FF000090EE03078203800EB80006A
:101190003949084410F8090001A901F8090009F1CA
:1011A000010000F0FF09B9F1050FEDDB30780A28E6
:1011B00002D00D2808D105E0C4EBC400401C38441F
:1011C000C7B250E000254EE0052000FB0450802807
:1011D00005DB0025C4EBC400401C3844C7B24FF007
:1011E000000A3CE04FF0000830E001200090009839
:1011F00000FA08F0C0B2009001A810F80A000099A7
:1012000008400090009800281CDD4FF0000B17E00C
:10121000002003900DE008FB04725A44D1B2039AF7
:101220002A44D0B20E9AFFF7B9FD0398401CC0B211
:1012300003900398A042EEDB0BF1010000F0FF0BDE
:10124000A345E5DB08F1010000F0FF08B8F1070F46
:10125000CBDB0AF1010000F0FF0A2819C5B2BAF190
:10126000050FBFDB00BF761C681CC5B230780028B4
:1012700087D1BDE8FF9F0000EE120008704770475D
:101280007047754600F028F8AE460500694653469B
:1012900020F00700854618B020B5FFF771F8BDE8CB
:1012A00020404FF000064FF000074FF000084FF0CD
:1012B000000B21F00701AC46ACE8C009ACE8C0095E
:1012C000ACE8C009ACE8C0098D4670470446AFF3EE
:1012D00000802046FEF751FF004870472C00002098
:1012E00001491820ABBEFEE726000200704700004F
:1012F00000000000005F00000003000300143E1423
:101300003E14242A7F2A1243330866613649552247
:10131000500005030000001C2241000041221C0077
:1013200014083E081408083E080800503000000861
:1013300008080808006060000020100804023E5100
:1013400049453E0004027F0042615149462241491D
:1013500049361814127F1027454545393E494949F9
:101360003201017109073649494936264949493E42
:1013700000363600000056360000081422410014E2
:1013800014141414004122140802015109063E41AC
:1013900059555E7E0909097E7F494949363E4141DA
:1013A00041227F4141413E7F494949417F09090925
:1013B000013E4141493A7F0808087F00417F4100D2
:1013C000304040403F7F081422417F404040407FF2
:1013D000020C027F7F0204087F3E4141413E7F09AB
:1013E0000909061E2121215E7F090909762649493E
:1013F000493201017F01013F4040403F1F20402012
:101400001F7F2010207F41221C22410708700807FF
:101410006151494543007F4100000204081020004B
:1014200000417F00040201020440404040400001AE
:1014300002040020545454787F44444438384444CF
:101440004444384444447F385454541804047E05BA
:1014500005085454543C7F0804047800447D40003F
:101460002040443D007F1028440000417F40007C24
:10147000047804787C0804047838444444387C14A4
:10148000141408081414147C007C080404485454F0
:10149000542004043F44443C4040207C1C20402015
:1014A0001C3C4030403C44281028440C5050503CD8
:1014B0004464544C44000836414100007F00004120
:1014C000413608000201020402000000EC1400088A
:1014D000000000202C00000028010008181500085A
:1014E0002C000020640600004401000800A24A0409
:1014F00000000000000000000102030406070809C4
:1015000000000000010203040102030406070809A9
:081510000204060800000000BF
:04000005080000ED02
:00000001FF
