:020000040800F2
:10000000900600206D0300087503000877030008C0
:10001000790300087B0300087D030008000000004E
:100020000000000000000000000000007F03000846
:100030008103000800000000830300088503000816
:10004000331100083511000837110008831100082A
:10005000391100083B1100083D1100083F1100084C
:1000600041110008431100084511000887030008EA
:100070008703000887030008870300088703000838
:100080008703000887030008870300088703000828
:100090008703000887030008870300085F11000832
:1000A000611100086311000865110008671100085C
:1000B000691100086B1100086D1100086F1100082C
:1000C00071110008731100087511000877110008FC
:1000D000791100087B1100087D1100087F110008CC
:1000E00081110008A91100088511000800F002F82C
:1000F00000F03FF80AA090E8000C82448344AAF183
:100100000107DA4501D100F034F8AFF2090EBAE880
:100110000F0013F0010F18BFFB1A43F0010318473B
:10012000CC150000EC150000103A24BF78C878C147
:10013000FAD8520724BF30C830C144BF04680C60ED
:10014000704700000023002400250026103A28BF35
:1001500078C1FBD8520728BF30C148BF0B60704739
:10016000752901F04781002070471FB51FBD10B5EC
:1001700010BD01F07EFA1146FFF7F7FF01F016F807
:1001800001F09CFA03B4FFF7F2FF03BC01F0A0FA00
:100190000CB50020019000906B48006840F480305E
:1001A0006949086000BF6848006800F400300090AA
:1001B0000198401C0190009818B90198B0F5A06F03
:1001C000F1D16148006810F4003F02D00120009096
:1001D00001E0002000900098012842D15B480068AF
:1001E00040F01000594908600846006820F00300FC
:1001F00008600846006840F0020008605248406805
:10020000514948600846406848600846406840F4E4
:10021000806048600846406820F47C1048600846CA
:10022000406840F4E81048600846006840F080707C
:10023000086000BF4448006810F0007FFAD04248D0
:10024000406820F00300404948600846406840F09C
:100250000200486000BF3C48406800F00C000828DD
:10026000F9D10CBD10B5FFF793FF10BD10B536489E
:10027000006840F00100344908600846406834498D
:1002800008403149486008460068324908402E4914
:1002900008600846006820F480200860084640682E
:1002A00020F4FE0048604FF41F008860FFF7DAFF7B
:1002B0004FF000602849086010BD10B500210020F3
:1002C0000022214B5B6803F00C0121B1042906D008
:1002D000082928D107E0214B214C236027E01F4B40
:1002E0001F4C236023E0184B5B6803F47010164B1F
:1002F0005B6803F48032022303EB904022B9194B70
:100300004343174C23600DE00F4B5B6813F4003F31
:1003100004D0144B4343124C236003E00F4B434380
:100320000F4C236003E00D4B0D4C236000BF00BF5A
:10033000054B5B68C3F303130B4CE15C084B1B6874
:10034000CB40074C236010BD00100240002002404B
:100350000000FFF8FFFFF6FE08ED00E000127A0053
:100360000000002000093D000400002009488047EB
:1003700009480047FEE7FEE7FEE7FEE7FEE7FEE787
:10038000FEE7FEE7FEE7FEE704480549054A064B9F
:10039000704700006D020008ED000008900000208A
:1003A00090060020900200209002002010B5044624
:1003B000CA48844208D10121042000F027FB002113
:1003C000042000F023FB46E0C548844208D1012107
:1003D000082000F01BFB0021082000F017FB3AE08A
:1003E000C048844208D10121102000F00FFB0021F9
:1003F000102000F00BFB2EE0BB48844208D1012105
:10040000202000F003FB0021202000F0FFFA22E072
:10041000B648844208D10121402000F0F7FA0021BB
:10042000402000F0F3FA16E0B148844208D10121DF
:10043000802000F0EBFA0021802000F0E7FA0AE0CB
:10044000AC48844207D10121801500F0DFFA002179
:10045000A01500F0DBFA10BD10B50121084600F030
:10046000D5FA0021012000F0D1FA10BD2DE9F041AC
:10047000024600250026002000230024002791F8D2
:1004800003C00CF00F0591F803C01CF0100F03D04F
:1004900091F802C04CEA050591F800C0BCF1000FCC
:1004A00031D0146800202BE04FF0010C0CFA00F35F
:1004B000B1F800C00CEA03069E4220D183004FF041
:1004C0000F0C0CFA03F7BC4305FA03FC4CEA0404D6
:1004D00091F803C0BCF1280F06D14FF0010C0CFAC3
:1004E00000FCC2F814C00AE091F803C0BCF1480F48
:1004F00005D14FF0010C0CFA00FCC2F810C0401CF2
:100500000828D1D31460B1F800C0BCF1FF0F34DD6E
:10051000546800202EE000F1080C4FF0010808FAA2
:100520000CF3B1F800C00CEA03069E4221D183000F
:100530004FF00F0C0CFA03F7BC4305FA03FC4CEA2E
:10054000040491F803C0BCF1280F05D100F1080C98
:1005500008FA0CF8C2F8148091F803C0BCF1480FF7
:1005600007D100F1080C4FF0010808FA0CF8C2F8A6
:100570001080401C0828CED35460BDE8F0814FF6AF
:10058000FF710180022181700421C1707047024611
:10059000002093680B4201D0012000E0002070474A
:1005A0000146886880B2704702460020D3680B423B
:1005B00001D0012000E0002070470146C86880B2E9
:1005C000704701617047416170470AB1016100E005
:1005D00041617047C16070474FF480320A438261C5
:1005E0008161826182698269704702460020424BC4
:1005F00018684FF68073184040EA021008433E4BDB
:10060000186070473D49C8617047F0B50A4600233D
:1006100000240021002500F00046B6F1004F02D171
:10062000354EF16901E0344E7168C0F3034583B281
:1006300000F44016B6F5401F08D121F070612E4E2F
:10064000766826F070662C4F7E6012E000F480160B
:10065000B6F5801F06D1032606FA05F4A14341F042
:10066000706106E0460D360103FA06F6B14341F02B
:10067000706122B1460D360103FA06F6314300F0EF
:100680000046B6F1004F02D11B4EF16101E01A4E57
:100690007160F0BD30B500228B071C0F0F2303FAE9
:1006A00004F2154B08338C1053F824309343124C4A
:1006B00008348D1044F8253023468C1053F824302C
:1006C0008C07240F00FA04F423430B4C08348D10DC
:1006D00044F8253030BD0A490860704700080140E1
:1006E000000C0140001001400014014000180140BE
:1006F000001C014000200140000001400000204299
:10070000DC002042DD48006840F00100DB49086061
:1007100008464068DA490840D849486008460068F9
:10072000D8490840D54908600846006820F4802070
:1007300008600846406820F4FE0048604FF41F003F
:1007400088607047CD49096821F48031CB4A116037
:100750001146096821F480211160B0F5803F03D073
:10076000B0F5802F0ED106E0C449096841F480310C
:10077000C24A116007E0C149096841F4A021BF4A9B
:10078000116000E000BF00BF704710B501460022B5
:10079000002300204A11012A02D1B84C236806E048
:1007A000022A02D1B54C236A01E0B44C636A01F01D
:1007B0001F02012494401C4201D0012000E00020CF
:1007C00010BD38B5002000900024002500BF312066
:1007D000FFF7DBFF05460098401C00900098B0F53D
:1007E000A06F01D0002DF2D03120FFF7CEFF08B16D
:1007F000012400E00024204638BD014600209F4A25
:10080000106820F0F80040EAC100106070479E496F
:100810000860704702460020984B586820F47C100E
:1008200042EA01031843954B5860704796490866A1
:10083000704701460020914A506820F003000843A9
:10084000506070478D48406800F00C0070470146CA
:1008500000208A4A506820F0F0000843506070473A
:1008600001460020854A506820F4E060084350604B
:10087000704701460020814A506820F4605040EAE9
:10088000C1005060704729B17C4A527A02437B4BC9
:100890005A7204E0794A527A8243784B5A7270470E
:1008A0007A490860704701460020744A506820F475
:1008B00040400843506070470021754A11706F4AEC
:1008C00082F82010012802D0042808D103E0012179
:1008D0006F4A117004E005216D4A117000E000BFFD
:1008E00000BF70476B49086070476449096A01435B
:1008F000624A11627047674944390860704730B5F1
:1009000000210022002400235C4D6D6805F00C01DD
:1009100021B1042905D0082923D105E05E4D0560E9
:1009200022E05D4D05601FE0544D6D6805F47012C6
:10093000524D6D6805F48034022505EB92421CB9D6
:10094000564D554305600BE04C4D6D6815F4003F66
:1009500003D0524D5543056002E04F4D55430560AD
:1009600002E04D4D056000BF00BF444D6D6805F0CD
:10097000F00109094A4D6B5C0568DD4045603F4D5B
:100980006D6805F4E061090A454D6B5C4568DD4022
:1009900085603A4D6D6805F46051C90A404D6B5C45
:1009A0004568DD40C560354D6D6805F44041890BF3
:1009B0003C4D6B5CC568B5FBF3F5056130BD29B1F5
:1009C0002E4A526902432D4B5A6104E02B4A526968
:1009D00082432A4B5A61704729B1284A92690243DF
:1009E000264B9A6104E0254A92698243234B9A611F
:1009F000704729B1214AD2690243204BDA6104E0F1
:100A00001E4AD26982431D4BDA61704729B11B4AE5
:100A1000D2680243194BDA6004E0184AD268824374
:100A2000164BDA60704729B1144A12690243134B1E
:100A30001A6104E0114A12698243104B1A6170472F
:100A400014494039086070470F49C86470470B4922
:100A5000C87170470948406A40F080700749486291
:100A6000704701460020054A92680A4201D00120E1
:100A700000E0002070470149887270470010024072
:100A80000000FFF8FFFFF6FE00004242D80042429D
:100A9000201002408004424200127A0000093D000A
:100AA000140000202400002010B50446FA488442B7
:100AB00008D101214015FFF7A9FF00216015FFF7BC
:100AC000A5FF17E0F548844208D101210015FFF782
:100AD0009DFF00212015FFF799FF0BE0F0488442AD
:100AE00008D10121C803FFF791FF00214FF4004016
:100AF000FFF78CFF10BD30B5024600200023506880
:100B0000E84C20400D790C6844EA052420435060ED
:100B10009068E54C2040D1E902542C434D7944EAD9
:100B2000450420439060D06A20F470000C7C641E61
:100B3000E4B2234340EA0350D06230BD002101609B
:100B4000017141718160C16001210174704721B15F
:100B5000826842F00102826003E0826822F00102B2
:100B60008260704721B1826842F48072826003E043
:100B7000826822F480728260704710B50023CBB285
:100B80001AB144681C43446002E044689C434460DA
:100B900010BD816841F00801816070470146002066
:100BA0008A6812F0080F01D0012000E00020704791
:100BB000816841F0040181607047014600208A6825
:100BC00012F0040F01D0012000E00020704721B195
:100BD000826842F4A002826003E0826822F4A002EC
:100BE00082607047014600208A6812F4800F01D0AD
:100BF000012000E00020704710B50A4600210023C4
:100C0000416821F46041531E41EA4331416010BD07
:100C100021B1426842F40062426003E0426822F47B
:100C2000006242607047F0B504460D460020002186
:100C3000092D11DDE068A5F10A0606EB4607072637
:100C400006FA07F18843A5F10A0606EB460603FA01
:100C500006F10843E0600CE0206905EB4507072634
:100C600006FA07F1884305EB450603FA06F1084347
:100C70002061072A0FDA606B561E06EB86071F26D7
:100C800006FA07F18843561E06EB860605FA06F1BA
:100C90000843606322E00D2A0FDA206BD61F06EBB3
:100CA00086071F2606FA07F18843D61F06EB86063D
:100CB00005FA06F10843206310E0E06AA2F10D0690
:100CC00006EB86071F2606FA07F18843A2F10D06F8
:100CD00006EB860605FA06F10843E062F0BD21B195
:100CE000826842F48012826003E0826822F48012FB
:100CF000826070470146C86C80B2704766484C30CD
:100D00000068704721B1426842F48062426003E0AB
:100D1000426822F480624260704721B1426842F426
:100D20008052426003E0426822F480524260704781
:100D30000A460021816821F4E04111438160704737
:100D400021B1826842F40042826003E0826822F4AA
:100D500000428260704721B1826842F402128260D0
:100D600003E0826822F4021282607047014600208C
:100D70008A6812F4001F01D0012000E000207047B3
:100D8000F0B504461546002000220026092911DD91
:100D9000E068A1F10A0707EB470C072707FA0CF2F6
:100DA0009043A1F10A0707EB470703FA07F2104344
:100DB000E0600CE0206901EB410C072707FA0CF218
:100DC000904301EB410703FA07F210432061A06B47
:100DD000C0F30156EF1C06F1010CA7EB0C0707EB63
:100DE000870C1F2707FA0CF29043EF1C06F1010C49
:100DF000A7EB0C0707EB870701FA07F21043A06384
:100E0000F0BD10B50A4600210023816B21F440118A
:100E1000531E41EA0351816310BD08B500230093BE
:100E20000090009B0B440093009B1A6008BD08B51E
:100E3000024600200090009201F12800009B184417
:100E400000900098006880B208BD0A460021416801
:100E5000164B1940114341607047416282627047EE
:100E60000A460021416821F01F011143416070478B
:100E700040B109490831096841F40001064A0832C5
:100E8000116007E004490831096821F40001024AB1
:100E90000832116070470000002401400028014022
:100EA000003C0140FFFEF0FFFDF7F1FFFFFD3FFFBB
:100EB0000246002013680B4201D0012000E0002010
:100EC0007047CA430260704770B502460020002395
:100ED00000240B125568CEB205EA060415681D42BF
:100EE00002D00CB1012000E0002070BD00220A12E7
:100EF000D3430360704700004FF0E021096921F0FF
:100F000004014FF0E0221161C21700EB5272C2F3EC
:100F1000C702224B1A701946097801EB4102C2EB55
:100F2000C1114FF6FF7202EAC1011D4A11807047DC
:100F300001461B4A12884A434FF0E0235A610022BF
:100F40009A6101221A6100BF4FF0E022106910F08F
:100F5000010F02D010F4803FF6D000224FF0E023C2
:100F60001A619A61704701460C4A12784A434FF061
:100F7000E0235A6100229A6101221A6100BF4FF0FA
:100F8000E022106910F0010F02D010F4803FF6D07B
:100F900000224FF0E0231A619A6170472800002078
:100FA0002A00002008B501210846FFF715FD0121A0
:100FB0001A48FFF72AFB01210420FFF70DFD4FF629
:100FC000FE70ADF8000010208DF8030003208DF8AE
:100FD000020069461248FFF749FA0120ADF8000007
:100FE00000208DF8030003208DF8020069460C48AC
:100FF000FFF73CFA01210820FFF7EEFC4FF6FF70E7
:10100000ADF8000010208DF8030003208DF80200D9
:1010100069460448FFF72AFA08BD000000043000C2
:1010200000080140000C014000B585B001214802D4
:10103000FFF7D2FC002000908DF8040001208DF80D
:1010400005004FF4602002900020039001208DF8ED
:10105000100001212E48FFF742FE69462C48FFF799
:101060004AFD2C492A48FFF7F0FE0120FFF700FF58
:1010700001212748FFF776FD01212548FFF767FD8D
:101080002348FFF786FD00BF2148FFF787FD0028B2
:10109000FAD11F48FFF78CFD00BF1D48FFF78DFDFB
:1010A0000028FAD105B000BD70B504460D460523F1
:1010B000012229462046FFF7B6FD2046FFF769FDCD
:1010C00000BF2046FFF76AFD0028FAD12046FFF74F
:1010D0006FFD00BF2046FFF770FD0028FAD1012107
:1010E0002046FFF774FD00BF02212046FFF7E0FE17
:1010F0000028F9D002212046FFF7E3FE0021204618
:10110000FFF765FD2046FFF7F5FD0646304670BD4A
:101110000024014000028000704700BFFEE700BFCE
:10112000FEE700BFFEE700BFFEE77047704770476D
:1011300070477047704770477047704770477047F7
:1011400070477047704770477047704770477047E7
:1011500070477047704770477047704770477047D7
:1011600070477047704770477047704770477047C7
:1011700070477047704770477047704770477047B7
:1011800070477047704770477047704770477047A7
:101190007047704770477047704770477047704797
:1011A00070477047704770477047000086B0FFF780
:1011B0005DF8FFF7F7FEFFF737FF4820FFF79CFECB
:1011C00000F072F811A000F0BFF80121002000F03B
:1011D00099F811A000F0B8F84FF47A70FFF7A8FE64
:1011E00000F05AF810E000210F48FFF75DFF0446B9
:1011F00022460EA101A800F0BFF80021084600F029
:1012000081F801A800F0A0F8EDE700004D696E68D4
:10121000486147726F75700042616E4C696E684B31
:1012200069656E2E566E0000002401404144432043
:101230003D2025347500000010B5012048490860A4
:101240004FF00300FFF78FFE00204649C1F8B801B8
:101250003220FFF788FE10BD00F00101424A116004
:10126000C0F34001414AC2F89411C0F38001404AE2
:101270001160C0F3C0013D4AC2F89C11704710B51F
:1012800004462011FFF7E8FFFFF7D6FF2046FFF7DF
:10129000E3FFFFF7D1FF10BD10B50120FFF7EFFF0F
:1012A0000520FFF745FE10BD10B50020FFF7D4FF65
:1012B0001420FFF73DFE00202E4908602949C1F89F
:1012C000B4014FF00300FFF7C7FFFFF7B5FF05209C
:1012D000FFF72EFEFFF7B0FF6420FFF744FEFFF795
:1012E000ABFF0220FFF7B8FFFFF7A6FF2820FFF7AC
:1012F000C6FF0C20FFF7C3FF0620FFF7C0FFFFF774
:10130000CBFF10BD70B504460E461EB904F1800037
:10131000C5B202E004F1C000C5B20120FFF708FE2B
:101320002846FFF7ACFF0520FFF702FE70BD10B5A1
:10133000044601200F4908602046FFF7A0FF002067
:101340000849C1F8B00110BD10B5044603E020788B
:10135000FFF7EDFF641C20780028F8D110BD0000D5
:10136000B8812142008021429001214200002142A7
:1013700098012142B08121420FB41CB5074B06AA47
:101380007B4469460090059800F05BF900206946AF
:1013900000F06AF91CBC5DF814FB0000E5020000D7
:1013A00070B5044685690068C10601D5302600E0A5
:1013B0002026C00708D070BDD4E9012130469047EF
:1013C000206A00F1010020626D1EF5D570BD70B578
:1013D000044685690078C00708D170BDD4E90121B1
:1013E00020209047206A00F1010020626D1EF5D593
:1013F00070BD00002DE9F0410646002410687529F3
:10140000314616A511D0AFF30080002803DAC0F1F1
:10141000000013A507E031688A0701D511A502E095
:10142000490704D510A5012401E0AFF30080002195
:101430000A2306F1240707E0B0FBF3F203FB1200D6
:10144000303078541046491C0028F5D123462A46EE
:101450003046BDE8F04100F093B800000000000005
:101460002D0000002B000000200000002DE9F047B7
:101470004FF0000A89460446C0F820A02046E168E3
:101480008847002876D0252806D0D4E90121904746
:10149000206A401C2062F1E7E16820460025884769
:1014A000C4F81CA006460027C4F818A02A2E09D0AC
:1014B000304600F014F938B304EB8708303EC8F822
:1014C000186019E059F8041B204604EB870291616B
:1014D000E1688847012F064618D1E069002820DA24
:1014E00025F020051DE0D8F8180000EB800006EB81
:1014F00040003038C8F818002046E16888470646A2
:1015000000F0EDF80028EED1012F0AD02E2E08D1E0
:101510002046E16888477F1C0646022F45F02005DB
:10152000C4DBA069002803DA404245F00105A06150
:10153000E80701D025F01005B6B1A6F14100192841
:1015400002D8203645F400654A46314620462560DB
:101550004D46FEF705FE58B1012806D0ED1D25F0D9
:10156000070000F1080989E704E005F1040985E7AF
:1015700030468AE7206ABDE8F087704770477047B9
:101580002DE9F0470D4699469246044600F124089D
:101590000168880604D5E06921F01001216000E0AF
:1015A0000120A84202DDA0EB050700E00027A169A9
:1015B00007EB050202EB0900A1EB0000A061207817
:1015C000C00602D42046FFF7EBFE002608E0D4E96F
:1015D00001211AF806009047206A401C761C206200
:1015E0004E45F4DB2078C0060AD52046FFF7D8FE2A
:1015F00006E0D4E9012130209047206A401C206297
:10160000381EA7F10107F4DC07E0D4E9012118F83E
:1016100005009047206A401C2062281EA5F10105A4
:10162000F3DC2046FFF7D3FE2078000602D5022027
:10163000BDE8F0870120FBE701694A1C02610878D8
:10164000704700B58FB0CDE9013100210591054902
:101650007944CDE9031011466846FFF707FF0FB044
:1016600000BD0000E5FFFFFF0A6802F8010B0A60F9
:101670007047754600F028F8AE46050069465346A7
:1016800020F00700854618B020B5FEF77DFEBDE8C6
:1016900020404FF000064FF000074FF000084FF0D9
:1016A000000B21F00701AC46ACE8C009ACE8C0096A
:1016B000ACE8C009ACE8C0098D4670470446AFF3FA
:1016C00000802046FEF75EFD004870472C00002099
:1016D00001491820ABBEFEE72600020070473038F3
:1016E0000A2801D201207047002070470C1700081B
:1016F000000000202C000000280100083817000816
:101700002C000020640600004401000800A24A04E6
:1017100000000000000000000102030406070809A1
:101720000000000001020304010203040607080987
:0817300002040608000000009D
:04000005080000ED02
:00000001FF
