:020000040800F2
:10000000900600206D0300087503000877030008C0
:10001000790300087B0300087D030008000000004E
:100020000000000000000000000000007F03000846
:100030008103000800000000830300088503000816
:100040008703000887030008870300088703000868
:100050008703000887030008870300088703000858
:100060008703000887030008870300088703000848
:100070008703000887030008870300088703000838
:100080008703000887030008870300088703000828
:100090008703000887030008870300088703000818
:1000A0008703000887030008870300088703000808
:1000B00087030008870300088703000887030008F8
:1000C00087030008870300088703000887030008E8
:1000D00087030008870300088703000887030008D8
:1000E00087030008870300088703000800F002F870
:1000F00000F03FF80AA090E8000C82448344AAF183
:100100000107DA4501D100F034F8AFF2090EBAE880
:100110000F0013F0010F18BFFB1A43F0010318473B
:10012000900F0000B00F0000103A24BF78C878C1CB
:10013000FAD8520724BF30C830C144BF04680C60ED
:10014000704700000023002400250026103A28BF35
:1001500078C1FBD8520728BF30C148BF0B60704739
:10016000632900F05A87002070471FB51FBD10B5E6
:1001700010BD00F05EFF1146FFF7F7FF00F03CFDF9
:1001800000F07CFF03B4FFF7F2FF03BC00F080FF38
:100190000CB50020019000906B48006840F480305E
:1001A0006949086000BF6848006800F400300090AA
:1001B0000198401C0190009818B90198B0F5A06F03
:1001C000F1D16148006810F4003F02D00120009096
:1001D00001E0002000900098012842D15B480068AF
:1001E00040F01000594908600846006820F00300FC
:1001F00008600846006840F0020008605248406805
:10020000514948600846406848600846406840F4E4
:10021000806048600846406820F47C1048600846CA
:10022000406840F4E81048600846006840F080707C
:10023000086000BF4448006810F0007FFAD04248D0
:10024000406820F00300404948600846406840F09C
:100250000200486000BF3C48406800F00C000828DD
:10026000F9D10CBD10B5FFF793FF10BD10B536489E
:10027000006840F00100344908600846406834498D
:1002800008403149486008460068324908402E4914
:1002900008600846006820F480200860084640682E
:1002A00020F4FE0048604FF41F008860FFF7DAFF7B
:1002B0004FF000602849086010BD10B500210020F3
:1002C0000022214B5B6803F00C0121B1042906D008
:1002D000082928D107E0214B214C236027E01F4B40
:1002E0001F4C236023E0184B5B6803F47010164B1F
:1002F0005B6803F48032022303EB904022B9194B70
:100300004343174C23600DE00F4B5B6813F4003F31
:1003100004D0144B4343124C236003E00F4B434380
:100320000F4C236003E00D4B0D4C236000BF00BF5A
:10033000054B5B68C3F303130B4CE15C084B1B6874
:10034000CB40074C236010BD00100240002002404B
:100350000000FFF8FFFFF6FE08ED00E000127A0053
:100360000000002000093D000400002009488047EB
:1003700009480047FEE7FEE7FEE7FEE7FEE7FEE787
:10038000FEE7FEE7FEE7FEE704480549054A064B9F
:10039000704700006D020008ED000008900000208A
:1003A00090060020900200209002002010B5044624
:1003B000CA48844208D10121042000F027FB002113
:1003C000042000F023FB46E0C548844208D1012107
:1003D000082000F01BFB0021082000F017FB3AE08A
:1003E000C048844208D10121102000F00FFB0021F9
:1003F000102000F00BFB2EE0BB48844208D1012105
:10040000202000F003FB0021202000F0FFFA22E072
:10041000B648844208D10121402000F0F7FA0021BB
:10042000402000F0F3FA16E0B148844208D10121DF
:10043000802000F0EBFA0021802000F0E7FA0AE0CB
:10044000AC48844207D10121801500F0DFFA002179
:10045000A01500F0DBFA10BD10B50121084600F030
:10046000D5FA0021012000F0D1FA10BD2DE9F041AC
:10047000024600250026002000230024002791F8D2
:1004800003C00CF00F0591F803C01CF0100F03D04F
:1004900091F802C04CEA050591F800C0BCF1000FCC
:1004A00031D0146800202BE04FF0010C0CFA00F35F
:1004B000B1F800C00CEA03069E4220D183004FF041
:1004C0000F0C0CFA03F7BC4305FA03FC4CEA0404D6
:1004D00091F803C0BCF1280F06D14FF0010C0CFAC3
:1004E00000FCC2F814C00AE091F803C0BCF1480F48
:1004F00005D14FF0010C0CFA00FCC2F810C0401CF2
:100500000828D1D31460B1F800C0BCF1FF0F34DD6E
:10051000546800202EE000F1080C4FF0010808FAA2
:100520000CF3B1F800C00CEA03069E4221D183000F
:100530004FF00F0C0CFA03F7BC4305FA03FC4CEA2E
:10054000040491F803C0BCF1280F05D100F1080C98
:1005500008FA0CF8C2F8148091F803C0BCF1480FF7
:1005600007D100F1080C4FF0010808FA0CF8C2F8A6
:100570001080401C0828CED35460BDE8F0814FF6AF
:10058000FF710180022181700421C1707047024611
:10059000002093680B4201D0012000E0002070474A
:1005A0000146886880B2704702460020D3680B423B
:1005B00001D0012000E0002070470146C86880B2E9
:1005C000704701617047416170470AB1016100E005
:1005D00041617047C16070474FF480320A438261C5
:1005E0008161826182698269704702460020424BC4
:1005F00018684FF68073184040EA021008433E4BDB
:10060000186070473D49C8617047F0B50A4600233D
:1006100000240021002500F00046B6F1004F02D171
:10062000354EF16901E0344E7168C0F3034583B281
:1006300000F44016B6F5401F08D121F070612E4E2F
:10064000766826F070662C4F7E6012E000F480160B
:10065000B6F5801F06D1032606FA05F4A14341F042
:10066000706106E0460D360103FA06F6B14341F02B
:10067000706122B1460D360103FA06F6314300F0EF
:100680000046B6F1004F02D11B4EF16101E01A4E57
:100690007160F0BD30B500228B071C0F0F2303FAE9
:1006A00004F2154B08338C1053F824309343124C4A
:1006B00008348D1044F8253023468C1053F824302C
:1006C0008C07240F00FA04F423430B4C08348D10DC
:1006D00044F8253030BD0A490860704700080140E1
:1006E000000C0140001001400014014000180140BE
:1006F000001C014000200140000001400000204299
:10070000DC002042DD48006840F00100DB49086061
:1007100008464068DA490840D849486008460068F9
:10072000D8490840D54908600846006820F4802070
:1007300008600846406820F4FE0048604FF41F003F
:1007400088607047CD49096821F48031CB4A116037
:100750001146096821F480211160B0F5803F03D073
:10076000B0F5802F0ED106E0C449096841F480310C
:10077000C24A116007E0C149096841F4A021BF4A9B
:10078000116000E000BF00BF704710B501460022B5
:10079000002300204A11012A02D1B84C236806E048
:1007A000022A02D1B54C236A01E0B44C636A01F01D
:1007B0001F02012494401C4201D0012000E00020CF
:1007C00010BD38B5002000900024002500BF312066
:1007D000FFF7DBFF05460098401C00900098B0F53D
:1007E000A06F01D0002DF2D03120FFF7CEFF08B16D
:1007F000012400E00024204638BD014600209F4A25
:10080000106820F0F80040EAC100106070479E496F
:100810000860704702460020984B586820F47C100E
:1008200042EA01031843954B5860704796490866A1
:10083000704701460020914A506820F003000843A9
:10084000506070478D48406800F00C0070470146CA
:1008500000208A4A506820F0F0000843506070473A
:1008600001460020854A506820F4E060084350604B
:10087000704701460020814A506820F4605040EAE9
:10088000C1005060704729B17C4A527A02437B4BC9
:100890005A7204E0794A527A8243784B5A7270470E
:1008A0007A490860704701460020744A506820F475
:1008B00040400843506070470021754A11706F4AEC
:1008C00082F82010012802D0042808D103E0012179
:1008D0006F4A117004E005216D4A117000E000BFFD
:1008E00000BF70476B49086070476449096A01435B
:1008F000624A11627047674944390860704730B5F1
:1009000000210022002400235C4D6D6805F00C01DD
:1009100021B1042905D0082923D105E05E4D0560E9
:1009200022E05D4D05601FE0544D6D6805F47012C6
:10093000524D6D6805F48034022505EB92421CB9D6
:10094000564D554305600BE04C4D6D6815F4003F66
:1009500003D0524D5543056002E04F4D55430560AD
:1009600002E04D4D056000BF00BF444D6D6805F0CD
:10097000F00109094A4D6B5C0568DD4045603F4D5B
:100980006D6805F4E061090A454D6B5C4568DD4022
:1009900085603A4D6D6805F46051C90A404D6B5C45
:1009A0004568DD40C560354D6D6805F44041890BF3
:1009B0003C4D6B5CC568B5FBF3F5056130BD29B1F5
:1009C0002E4A526902432D4B5A6104E02B4A526968
:1009D00082432A4B5A61704729B1284A92690243DF
:1009E000264B9A6104E0254A92698243234B9A611F
:1009F000704729B1214AD2690243204BDA6104E0F1
:100A00001E4AD26982431D4BDA61704729B11B4AE5
:100A1000D2680243194BDA6004E0184AD268824374
:100A2000164BDA60704729B1144A12690243134B1E
:100A30001A6104E0114A12698243104B1A6170472F
:100A400014494039086070470F49C86470470B4922
:100A5000C87170470948406A40F080700749486291
:100A6000704701460020054A92680A4201D00120E1
:100A700000E0002070470149887270470010024072
:100A80000000FFF8FFFFF6FE00004242D80042429D
:100A9000201002408004424200127A0000093D000A
:100AA00014000020240000204FF0E021096921F00B
:100AB00004014FF0E0221161C21700EB5272C2F341
:100AC000C702224B1A701946097801EB4102C2EBAA
:100AD000C1114FF6FF7202EAC1011D4A1180704731
:100AE00001461B4A12884A434FF0E0235A61002214
:100AF0009A6101221A6100BF4FF0E022106910F0E4
:100B0000010F02D010F4803FF6D000224FF0E02316
:100B10001A619A61704701460C4A12784A434FF0B5
:100B2000E0235A6100229A6101221A6100BF4FF04E
:100B3000E022106910F0010F02D010F4803FF6D0CF
:100B400000224FF0E0231A619A61704728000020CC
:100B50002A00002008B501210846FFF73DFF0121CA
:100B60002248FFF752FD01210420FFF735FF4FF621
:100B7000FF70ADF8000010208DF8030003208DF801
:100B8000020069461A48FFF771FC01210820FFF7AF
:100B900023FF4FF60F70ADF8000010208DF8030012
:100BA00003208DF8020069461248FFF75FFCF02031
:100BB000ADF8000048208DF8030003208DF80200F6
:100BC00069460C48FFF752FC08BDF8B506460C46CE
:100BD0001546ADF800408DF8035003208DF8020053
:100BE00069463046FFF742FCF8BD000000023000C5
:100BF00000080140000C014086B0FFF737FBFFF70B
:100C0000A9FF4820FFF750FF00F070F810A000F097
:100C1000BDF80121002000F097F810A000F0B6F810
:100C200015E000F00CF904468CB122460FA101A892
:100C300000F058F90121002000F086F801A800F02A
:100C4000A5F802E000F0FBF80446002CFAD1E8E732
:100C50004D696E68486147726F75700042616E4CF5
:100C6000696E684B69656E2E566E00004B65792083
:100C70003D202563202020202020200010B50120C9
:100C8000484908604FF00300FFF745FF0020464940
:100C9000C1F8B8013220FFF73EFF10BD00F001019E
:100CA000424A1160C0F34001414AC2F89411C0F3B6
:100CB0008001404A1160C0F3C0013D4AC2F89C1156
:100CC000704710B504462011FFF7E8FFFFF7D6FF85
:100CD0002046FFF7E3FFFFF7D1FF10BD10B501205D
:100CE000FFF7EFFF0520FFF7FBFE10BD10B500205A
:100CF000FFF7D4FF1420FFF7F3FE00202E49086011
:100D00002949C1F8B4014FF00300FFF7C7FFFFF70F
:100D1000B5FF0520FFF7E4FEFFF7B0FF6420FFF703
:100D2000FAFEFFF7ABFF0220FFF7B8FFFFF7A6FFC1
:100D30002820FFF7C6FF0C20FFF7C3FF0620FFF7B0
:100D4000C0FFFFF7CBFF10BD70B504460E461EB9BD
:100D500004F18000C5B202E004F1C000C5B2012078
:100D6000FFF7BEFE2846FFF7ACFF0520FFF7B8FEF1
:100D700070BD10B5044601200F4908602046FFF7FA
:100D8000A0FF00200849C1F8B00110BD10B504460D
:100D900003E02078FFF7EDFF641C20780028F8D1ED
:100DA00010BD0000B8812142008021429001214203
:100DB0000000214298012142B08121423F48006851
:100DC00008B9012000E000203D49096809B9012166
:100DD00000E0002108433B49096809B9012100E00E
:100DE000002108433849096809B9012100E00021C0
:100DF000084301D0012070470020FCE70121334A5D
:100E0000116002F10402116002F104021160304A23
:100E1000C2F88C1118B900212E4A11600EE0012889
:100E200003D100212C4A116008E0022803D10021DF
:100E30002A4A116002E00021244A1160704710B56F
:100E4000002022490860254908602349086020499C
:100E5000C1F88C01FFF7B2FF68B30520FFF740FE31
:100E6000FFF7ACFF38B3002423E02046FFF7C6FFAE
:100E70001248006818B91A4810F8240010BD10482C
:100E8000006820B9164800EB84004078F6E70D486A
:100E9000006820B9124800EB84008078EEE70A4829
:100EA000006820B90E4800EB8400C078E6E7601CBB
:100EB000C4B2042CD9DB0020E0E7000010812142FD
:100EC00014812142188121421C81214280812142CA
:100ED000008021428C8121428881214284812142EB
:100EE0009E1000080FB41CB5074B06AA7B44694648
:100EF0000090059800F06FF80020694600F07EF839
:100F00001CBC5DF814FB00000D0100002DE9F04150
:100F10000E460446002020622046E168884730B330
:100F2000252805D0D4E901219047206A401CF2E72A
:100F3000E168204600278847050018D0A5F1410048
:100F4000192802D820354FF400673246294620463A
:100F50002760FFF705F940B1012804D0F61D26F0FF
:100F600007060836D8E7361DD6E72846DAE7206AAE
:100F7000BDE8F08170B50C460546012A05D02878F9
:100F8000800600D5EA69002302E0012305E05B1C2E
:100F9000934202D2E05C0028F9D1A869E618C01A91
:100FA000A861286A184428622846AFF3008004E04C
:100FB000D5E9012114F8010B9047B442F8D3284633
:100FC000AFF3008070BD70477047704701694A1CDD
:100FD00002610878704700B58FB0CDE9013100217A
:100FE000059105497944CDE9031011466846FFF79C
:100FF0008DFF0FB000BD0000E5FFFFFF0A6802F89B
:10100000010B0A60704710B5436913B1AFF300805C
:1010100001E0FFF7AFFF012010BD127800F12401BD
:101020000A7000224A700122EDE711684FF0FF328A
:10103000E9E7754600F028F8AE46050069465346D4
:1010400020F00700854618B020B5FFF79DF9BDE8F0
:1010500020404FF000064FF000074FF000084FF01F
:10106000000B21F00701AC46ACE8C009ACE8C009B0
:10107000ACE8C009ACE8C0098D4670470446AFF340
:1010800000802046FFF77EF8004870472C000020C3
:1010900001491820ABBEFEE7260002007047373832
:1010A000392F3435362A3132332D23303D2B000091
:1010B000D0100008000000202C00000028010008CB
:1010C000FC1000082C000020640600004401000809
:1010D00000A24A0400000000000000000102030416
:1010E00006070809000000000102030401020304CE
:0C10F000060708090204060800000000C2
:04000005080000ED02
:00000001FF
