:020000040800F2
:10000000900600207D030008850300088703000890
:10001000890300088B0300088D030008000000001E
:100020000000000000000000000000008F03000836
:1000300091030008000000009303000895030008E6
:100040009703000897030008970300089703000828
:100050009703000897030008970300089703000818
:100060009703000897030008970300089703000808
:1000700097030008970300089703000897030008F8
:1000800097030008970300089703000897030008E8
:1000900097030008970300089703000897030008D8
:1000A00097030008970300089703000897030008C8
:1000B00097030008970300089703000897030008B8
:1000C00097030008970300089703000897030008A8
:1000D0009703000897030008970300089703000898
:1000E00097030008970300089703000800F002F840
:1000F00000F047F80AA090E8000C82448344AAF17B
:100100000107DA4501D100F03CF8AFF2090EBAE878
:100110000F0013F0010F18BFFB1A43F0010318473B
:100120002824000048240000103A24BF78C878C171
:10013000FAD8520724BF30C830C144BF04680C60ED
:10014000704700000023002400250026103A28BF35
:1001500078C1FBD8520728BF30C148BF0B60704739
:10016000662902F0A581002070471FB501F0D8F97B
:1001700004000020002101F01DFFE0601FBD10B54C
:1001800010BD01F0CDFA1146FFF7EFFF00F02EFD94
:1001900001F0EBFA03B4FFF7F2FF03BC01F02CFB14
:1001A0000CB50020019000906B48006840F480304E
:1001B0006949086000BF6848006800F4003000909A
:1001C0000198401C0190009818B90198B0F5A06FF3
:1001D000F1D16148006810F4003F02D00120009086
:1001E00001E0002000900098012842D15B4800689F
:1001F00040F01000594908600846006820F00300EC
:1002000008600846006840F00200086052484068F4
:10021000514948600846406848600846406840F4D4
:10022000806048600846406820F47C1048600846BA
:10023000406840F4E81048600846006840F080706C
:10024000086000BF4448006810F0007FFAD04248C0
:10025000406820F00300404948600846406840F08C
:100260000200486000BF3C48406800F00C000828CD
:10027000F9D10CBD10B5FFF793FF10BD10B536488E
:10028000006840F00100344908600846406834497D
:1002900008403149486008460068324908402E4904
:1002A00008600846006820F480200860084640681E
:1002B00020F4FE0048604FF41F008860FFF7DAFF6B
:1002C0004FF000602849086010BD10B500210020E3
:1002D0000022214B5B6803F00C0121B1042906D0F8
:1002E000082928D107E0214B214C236027E01F4B30
:1002F0001F4C236023E0184B5B6803F47010164B0F
:100300005B6803F48032022303EB904022B9194B5F
:100310004343174C23600DE00F4B5B6813F4003F21
:1003200004D0144B4343124C236003E00F4B434370
:100330000F4C236003E00D4B0D4C236000BF00BF4A
:10034000054B5B68C3F303130B4CE15C084B1B6864
:10035000CB40074C236010BD00100240002002403B
:100360000000FFF8FFFFF6FE08ED00E000127A0043
:100370000000002000093D000400002009488047DB
:1003800009480047FEE7FEE7FEE7FEE7FEE7FEE777
:10039000FEE7FEE7FEE7FEE704480549054A064B8F
:1003A000704700007D020008ED000008900000206A
:1003B00090060020900200209002002010B5044614
:1003C000CA48844208D10121042000F027FB002103
:1003D000042000F023FB46E0C548844208D10121F7
:1003E000082000F01BFB0021082000F017FB3AE07A
:1003F000C048844208D10121102000F00FFB0021E9
:10040000102000F00BFB2EE0BB48844208D10121F4
:10041000202000F003FB0021202000F0FFFA22E062
:10042000B648844208D10121402000F0F7FA0021AB
:10043000402000F0F3FA16E0B148844208D10121CF
:10044000802000F0EBFA0021802000F0E7FA0AE0BB
:10045000AC48844207D10121801500F0DFFA002169
:10046000A01500F0DBFA10BD10B50121084600F020
:10047000D5FA0021012000F0D1FA10BD2DE9F0419C
:10048000024600250026002000230024002791F8C2
:1004900003C00CF00F0591F803C01CF0100F03D03F
:1004A00091F802C04CEA050591F800C0BCF1000FBC
:1004B00031D0146800202BE04FF0010C0CFA00F34F
:1004C000B1F800C00CEA03069E4220D183004FF031
:1004D0000F0C0CFA03F7BC4305FA03FC4CEA0404C6
:1004E00091F803C0BCF1280F06D14FF0010C0CFAB3
:1004F00000FCC2F814C00AE091F803C0BCF1480F38
:1005000005D14FF0010C0CFA00FCC2F810C0401CE1
:100510000828D1D31460B1F800C0BCF1FF0F34DD5E
:10052000546800202EE000F1080C4FF0010808FA92
:100530000CF3B1F800C00CEA03069E4221D18300FF
:100540004FF00F0C0CFA03F7BC4305FA03FC4CEA1E
:10055000040491F803C0BCF1280F05D100F1080C88
:1005600008FA0CF8C2F8148091F803C0BCF1480FE7
:1005700007D100F1080C4FF0010808FA0CF8C2F896
:100580001080401C0828CED35460BDE8F0814FF69F
:10059000FF710180022181700421C1707047024601
:1005A000002093680B4201D0012000E0002070473A
:1005B0000146886880B2704702460020D3680B422B
:1005C00001D0012000E0002070470146C86880B2D9
:1005D000704701617047416170470AB1016100E0F5
:1005E00041617047C16070474FF480320A438261B5
:1005F0008161826182698269704702460020424BB4
:1006000018684FF68073184040EA021008433E4BCA
:10061000186070473D49C8617047F0B50A4600232D
:1006200000240021002500F00046B6F1004F02D161
:10063000354EF16901E0344E7168C0F3034583B271
:1006400000F44016B6F5401F08D121F070612E4E1F
:10065000766826F070662C4F7E6012E000F48016FB
:10066000B6F5801F06D1032606FA05F4A14341F032
:10067000706106E0460D360103FA06F6B14341F01B
:10068000706122B1460D360103FA06F6314300F0DF
:100690000046B6F1004F02D11B4EF16101E01A4E47
:1006A0007160F0BD30B500228B071C0F0F2303FAD9
:1006B00004F2154B08338C1053F824309343124C3A
:1006C00008348D1044F8253023468C1053F824301C
:1006D0008C07240F00FA04F423430B4C08348D10CC
:1006E00044F8253030BD0A490860704700080140D1
:1006F000000C0140001001400014014000180140AE
:10070000001C014000200140000001400000204288
:10071000DC002042DD48006840F00100DB49086051
:1007200008464068DA490840D849486008460068E9
:10073000D8490840D54908600846006820F4802060
:1007400008600846406820F4FE0048604FF41F002F
:1007500088607047CD49096821F48031CB4A116027
:100760001146096821F480211160B0F5803F03D063
:10077000B0F5802F0ED106E0C449096841F48031FC
:10078000C24A116007E0C149096841F4A021BF4A8B
:10079000116000E000BF00BF704710B501460022A5
:1007A000002300204A11012A02D1B84C236806E038
:1007B000022A02D1B54C236A01E0B44C636A01F00D
:1007C0001F02012494401C4201D0012000E00020BF
:1007D00010BD38B5002000900024002500BF312056
:1007E000FFF7DBFF05460098401C00900098B0F52D
:1007F000A06F01D0002DF2D03120FFF7CEFF08B15D
:10080000012400E00024204638BD014600209F4A14
:10081000106820F0F80040EAC100106070479E495F
:100820000860704702460020984B586820F47C10FE
:1008300042EA01031843954B586070479649086691
:10084000704701460020914A506820F00300084399
:10085000506070478D48406800F00C0070470146BA
:1008600000208A4A506820F0F0000843506070472A
:1008700001460020854A506820F4E060084350603B
:10088000704701460020814A506820F4605040EAD9
:10089000C1005060704729B17C4A527A02437B4BB9
:1008A0005A7204E0794A527A8243784B5A727047FE
:1008B0007A490860704701460020744A506820F465
:1008C00040400843506070470021754A11706F4ADC
:1008D00082F82010012802D0042808D103E0012169
:1008E0006F4A117004E005216D4A117000E000BFED
:1008F00000BF70476B49086070476449096A01434B
:10090000624A11627047674944390860704730B5E0
:1009100000210022002400235C4D6D6805F00C01CD
:1009200021B1042905D0082923D105E05E4D0560D9
:1009300022E05D4D05601FE0544D6D6805F47012B6
:10094000524D6D6805F48034022505EB92421CB9C6
:10095000564D554305600BE04C4D6D6815F4003F56
:1009600003D0524D5543056002E04F4D554305609D
:1009700002E04D4D056000BF00BF444D6D6805F0BD
:10098000F00109094A4D6B5C0568DD4045603F4D4B
:100990006D6805F4E061090A454D6B5C4568DD4012
:1009A00085603A4D6D6805F46051C90A404D6B5C35
:1009B0004568DD40C560354D6D6805F44041890BE3
:1009C0003C4D6B5CC568B5FBF3F5056130BD29B1E5
:1009D0002E4A526902432D4B5A6104E02B4A526958
:1009E00082432A4B5A61704729B1284A92690243CF
:1009F000264B9A6104E0254A92698243234B9A610F
:100A0000704729B1214AD2690243204BDA6104E0E0
:100A10001E4AD26982431D4BDA61704729B11B4AD5
:100A2000D2680243194BDA6004E0184AD268824364
:100A3000164BDA60704729B1144A12690243134B0E
:100A40001A6104E0114A12698243104B1A6170471F
:100A500014494039086070470F49C86470470B4912
:100A6000C87170470948406A40F080700749486281
:100A7000704701460020054A92680A4201D00120D1
:100A800000E0002070470149887270470010024062
:100A90000000FFF8FFFFF6FE00004242D80042428D
:100AA000201002408004424200127A0000093D00FA
:100AB00014000020240000204FF0E021096921F0FB
:100AC00004014FF0E0221161C21700EB5272C2F331
:100AD000C702224B1A701946097801EB4102C2EB9A
:100AE000C1114FF6FF7202EAC1011D4A1180704721
:100AF00001461B4A12884A434FF0E0235A61002204
:100B00009A6101221A6100BF4FF0E022106910F0D3
:100B1000010F02D010F4803FF6D000224FF0E02306
:100B20001A619A61704701460C4A12784A434FF0A5
:100B3000E0235A6100229A6101221A6100BF4FF03E
:100B4000E022106910F0010F02D010F4803FF6D0BF
:100B500000224FF0E0231A619A61704728000020BC
:100B60002A00002008B501210846FFF73DFF0121BA
:100B70001B48FFF752FD01210420FFF735FF4FF618
:100B8000FF70ADF8000010208DF8030003208DF8F1
:100B9000020069461348FFF771FC01210820FFF7A6
:100BA00023FF4FF6FF70ADF8000010208DF8030012
:100BB00003208DF8020069460B48FFF75FFC08BD73
:100BC000F8B506460C461546ADF800408DF80350C2
:100BD00003208DF8020069463046FFF74FFCF8BD50
:100BE0000002300000080140000C014086B0FFF711
:100BF00045FBFFF7B7FF4820FFF75EFF00F074F8F2
:100C000011A000F0C1F80121002000F09BF811A014
:100C100000F0BAF816E000F04BF906466420FFF742
:100C200067FF304601F0BAFB044622460B460DA191
:100C300001A800F07FF90121002000F083F801A84D
:100C400000F0A2F8E7E700004D696E68486147725E
:100C50006F75700042616E4C696E684B69656E2EEF
:100C6000566E00004E6869657420446F203D202553
:100C7000322E31660000000010B50120484908609E
:100C80004FF00300FFF74FFF00204649C1F8B801BD
:100C90003220FFF748FF10BD00F00101424A116009
:100CA000C0F34001414AC2F89411C0F38001404AA8
:100CB0001160C0F3C0013D4AC2F89C11704710B5E5
:100CC00004462011FFF7E8FFFFF7D6FF2046FFF7A5
:100CD000E3FFFFF7D1FF10BD10B50120FFF7EFFFD5
:100CE0000520FFF705FF10BD10B50020FFF7D4FF6A
:100CF0001420FFF7FDFE00202E4908602949C1F8A5
:100D0000B4014FF00300FFF7C7FFFFF7B5FF052061
:100D1000FFF7EEFEFFF7B0FF6420FFF704FFFFF7D9
:100D2000ABFF0220FFF7B8FFFFF7A6FF2820FFF771
:100D3000C6FF0C20FFF7C3FF0620FFF7C0FFFFF739
:100D4000CBFF10BD70B504460E461EB904F18000FD
:100D5000C5B202E004F1C000C5B20120FFF7C8FE31
:100D60002846FFF7ACFF0520FFF7C2FE70BD10B5A7
:100D7000044601200F4908602046FFF7A0FF00202D
:100D80000849C1F8B00110BD10B5044603E0207851
:100D9000FFF7EDFF641C20780028F8D110BD00009B
:100DA000B88121420080214290012142000021426D
:100DB00098012142B081214210B514224FF40071F4
:100DC0003848FFF7FDFE0020374908604FF4FA70FD
:100DD000FFF7A9FE0422D1013248FFF7F1FE4FF4DC
:100DE000FA70FFF7A0FE0422D1012E48FFF7E8FEBB
:100DF00010BD70B50446002526E014224FF40071A2
:100E00002848FFF7DDFE0020274908604FF0020068
:100E1000FFF789FE14F0010F03D00120224908607A
:100E200002E00020204908604FEA64044FF03C00D3
:100E3000FFF779FE0422D1011A48FFF7C1FE022014
:100E4000FFF771FE681CC5B2082DD6DB70BD70B50A
:100E50000025002421E014224FF400711148FFF70F
:100E6000AFFE0020104908604FF00200FFF75BFE64
:100E70000422D1010B48FFF7A3FE0820FFF753FE21
:100E80000A48D0F8240118B10120A0402843C5B277
:100E90007820FFF748FE601CC4B2082CDBDB284634
:100EA00070BD0000000C0140A4812142008021425D
:100EB0002DE9FE4F00200290FFF77EFFCC20FFF7C8
:100EC00098FF4420FFF795FF02E0FFF7C0FF029074
:100ED000029818B90198B0F5FA6FF6DBFFF76CFFCE
:100EE000CC20FFF786FFBE20FFF783FFFFF7AFFFA1
:100EF0008246FFF7ACFF0446A1464FF6FF7000EABA
:100F0000092949EA0A09484601F074FA009001F0FB
:100F100045FA07460022064B01F094F8054601F019
:100F20005FF88346C820FFF7E3FD5846BDE8FE8F13
:100F3000000030400FB41CB5074B06AA7B4469463D
:100F40000090059800F0D3FA0020694600F0E2FA1C
:100F50001CBC5DF814FB0000D505000070B504460C
:100F600085690068C10601D5302600E02026C0074B
:100F700008D070BDD4E9012130469047206A00F1C5
:100F8000010020626D1EF5D570BD70B504468569FF
:100F90000078C00708D170BDD4E901212020904716
:100FA000206A00F1010020626D1EF5D570BD2DE9AB
:100FB000F0474FF0000A89460446C0F820A02046BA
:100FC000E1688847002876D0252806D0D4E9012199
:100FD0009047206A401C2062F1E7E1682046002526
:100FE0008847C4F81CA006460027C4F818A02A2E7B
:100FF00009D0304600F0D6FF38B304EB8708303E06
:10100000C8F8186019E059F8041B204604EB870261
:101010009161E1688847012F064618D1E0690028F0
:1010200020DA25F020051DE0D8F8180000EB80003C
:1010300006EB40003038C8F818002046E1688847C1
:10104000064600F0AFFF0028EED1012F0AD02E2E69
:1010500008D12046E16888477F1C0646022F45F0EC
:101060002005C4DBA069002803DA404245F00105F1
:10107000A061E80701D025F01005B6B1A6F1410046
:10108000192802D8203645F400654A4631462046E4
:1010900025604D46FFF764F858B1012806D0ED1DD4
:1010A00025F0070000F1080989E704E005F10409CB
:1010B00085E730468AE7206ABDE8F08770477047C9
:1010C000704770472DE9FF4F0C461E464FF0FF3723
:1010D0008BB0D2E90001DDF860800A908A46C1F346
:1010E0000A5505B93D46002108464FF00000BAF107
:1010F000000F00F4400005DA00EB80004FF44001DF
:1011000001EA50004FEA9059B9F1010F00DDB946EC
:101110000A9850EA4A000ED044F61050A5F2FF3566
:1011200045432F14B8F1000F1ED07542291E1EDD55
:10113000C9F100021CE0B8F1010F4FF0000001D02E
:10114000302103E0F24305E02154401CB042FBDBB8
:1011500030460022002121540B99C1F80880C1E9D2
:1011600000200FB0BDE8F08FBD1B6D1CDEE74A46C6
:1011700000DA694206A800F05DFA06AB07CB03ABC4
:1011800007C350460A9900F03EFB8DE80700A0F522
:1011900000501F3800900398002D09DD42F21F0116
:1011A0004A46084403A90390684600F09DFD08E004
:1011B000A0F500504A461F3803A90390684600F086
:1011C000A7FD8DE807000004000C03D04FF0FF30AE
:1011D000410800E01046B8F1000F03D00022009251
:1011E00015461FE0751E06D400F09EF902F130028C
:1011F00062556D1EF8D5B3460122084302D0002285
:101200007F1C04E02078302801D100227F1E002AB4
:10121000099787D01DE0112D07DA00F085F93032EB
:1012200062556D1C50EA0102F5D108430FD100212F
:10123000681E05E0235C625C6354491C2254401E16
:101240008142F7DBAB46A81B401E099001E00098E5
:1012500048B1002004F80B000B98099AC0F80880E8
:10126000C0E9002B7DE711264FF000085AE72DE971
:10127000F04F88460446D21D22F0070191B0D1E913
:101280000001CDE90A0100F079FE02460B98C00F7B
:1012900001D02D2007E02068810701D52B2002E036
:1012A000202101EAC000032A099001D0072A05DBAA
:1012B00003464146204600F07DF90FE12078800684
:1012C00001D5E06900E00620B8F1650F814606D03F
:1012D000B8F1660F18D0B8F1670F72D132E0002074
:1012E000B9F1110F009001DB112301E009F10103B5
:1012F0000AAA01A90CA8FFF7E5FEDDE90C7000269B
:1013000009F10105834648E001204B4600904FF06B
:1013100000470AAA01A90CA8FFF7D4FEDDE90DB029
:101320000C995D46002618B909F1010001EB000592
:10133000B9EB050003D4C0F1FF3609F10105A5EBB7
:1013400009002BE0B9F1010F01DA4FF0010900208B
:10135000B9F1110F0090484601DD112300E003466A
:101360000AAA01A90CA8FFF7ADFEDDE90C704D46F5
:1013700000268346207800070AD4AB4500DA5D4694
:1013800001A8012D04DD411911F8011C302907D0F5
:101390004F4502DA17F1040F04DA0120824610E00B
:1013A0006D1EEEE7002F02DCED1B3E4403E0781CCF
:1013B000A84200DD0546A7EB060000F1010A4FF048
:1013C00000472078000703D4AA4501DB4FF0FF3A1D
:1013D0000021B7F1004F0DF143088DF8431023D0E1
:1013E00002202B23002F01DA7F422D234FF00A0C1D
:1013F000011EA0F1010000DC4FB197FBFCF10CFBDA
:1014000011720F4602F1300208F8012DF0E7A8F141
:10141000010003702188090501D5452100E06521FF
:10142000A0F1010800F8011C09980FA9A1EB080719
:1014300007F1070700B1012000EB050101EBEA709D
:10144000A1693844A1EB0000A0F10100A06120785F
:10145000C00602D42046FFF781FD099830B1D4E9D7
:1014600001219047206A00F1010020622078C00627
:1014700020D52046FFF772FD1CE0002E04DBB345AB
:1014800002DD01A8805D00E03020D4E90121904711
:10149000206A761C401CBAF1010A20620AD100F0D1
:1014A0003FF8C0680168405CD4E901219047206A98
:1014B000401C2062281EA5F10105DEDC07E0D4E90E
:1014C000012118F8010B9047206A401C2062381E49
:1014D000A7F10107F3DC2046FFF757FD022011B00A
:1014E00040E6000001694A1C02610878704700B5B7
:1014F0008FB0CDE901310021059105497944CDE94D
:10150000031011466846FFF752FD0FB000BD000002
:10151000E5FFFFFF0A6802F8010B0A607047000050
:10152000004870474C00002030B5B0F10A024FEA85
:10153000900E71F100034EEA817EB0EB0E0061EB7C
:1015400091014FEA101E4EEA017E10EB0E0041EBB6
:1015500011114FEA102E4EEA016E10EB0E0041EB16
:1015600011214FEA104E4EEA014E10EB0E0041EBF6
:101570001141401841F100014FEAD00040EA4170AA
:101580004FEAD10110EB80054FEA810444EA9074E0
:1015900044EB01046D1944EB0404521BA3414FF0CA
:1015A000000348BF0A3200D530BD401C41F10001A4
:1015B00030BD00002DE9F0411F46044603260168B6
:1015C000072A01F4006004DB08B116A505E016A5A2
:1015D00003E008B115A500E015A521F0100020607A
:1015E000A069C01EA0610FB1401EA0612046FFF798
:1015F000B5FC4FB1D4E9012138469047206A401C20
:101600002062C01C206206E0206AFAE7D4E90121CA
:1016100015F8010B9047761EF8D22046FFF7B5FC6F
:10162000BDE8F0814E414E006E616E00494E4600AD
:10163000696E66002DE9F047814616468AB0354846
:101640007844D0E9002380680092CDE90130314828
:1016500078440C38D0E90223006903924FF0370236
:10166000CDE9043041F69B30014491FBF2F0A0F14A
:10167000800502FB10141B3C02D56442012000E0EF
:101680000020DFF890A080460027FA44AAF1C60A9D
:101690000DE0E00709D03246684607EB47010AEB48
:1016A000810100F035FB8DE8070064107F1C002CE1
:1016B000EFD1184F7F44B43F17E0E80713D007EB92
:1016C00004100DF1180A90E80E00AAE80E00C06898
:1016D000F04201D198190890324606A903A800F0FB
:1016E00017FB03AB07C36D10641C002DE5D1324618
:1016F0006946B8F1000F03A802D000F0F5FA01E046
:1017000000F006FBC9E90001C9F808200AB0BDE8ED
:10171000F0870000EC0E0000004870472C0000200D
:101720007546FFF7F9FFAE4605006946534620F0BF
:101730000700854618B020B5FEF72EFEBDE8204014
:101740004FF000064FF000074FF000084FF0000B7D
:1017500021F00701AC46ACE8C009ACE8C009ACE830
:10176000C009ACE8C0098D4670470446AFF300805D
:101770002046FEF70FFD00004FF0013C50F8042B0F
:1017800051F8043B9A4221D1A2EB0C03934313EA94
:10179000CC1317D150F8042B51F8043B9A4215D1C1
:1017A000A2EB0C03934313EACC130BD150F8042B98
:1017B00051F8043B9A4209D1A2EB0C03934313EA7C
:1017C000CC13DBD04FF00000704700BFD01A01BA35
:1017D000B1FA81F101F0180122FA01F0CB40C1F118
:1017E0002001DBB2C0B2C01A2CFA01F3D11A914326
:1017F00011EAC311E6D1704701491820ABBEFEE7DC
:101800002600020070475FEA400C08BF91F0000F0D
:101810004FEA8C234FEAC12243EA51514FEA1C5050
:1018200018BF00F5F0404FEA300018BF41F000410A
:101830005FEA6C5C00F02980BCF1FF3F08BF40F01C
:1018400080407047130C06BF12044FF0100C4FF08D
:10185000000C130E04BF12020CF1080C130F04BF8E
:1018600012010CF1040C930F04BF92000CF1020C56
:10187000D30F04BF52000CF1010C11464FF00002CF
:10188000A0F11F00A0EB0C00704711F0004F08BF43
:10189000704731F000413FF4D5AF0B0C06BF09048F
:1018A0004FF0100C4FF0000C0B0E04BF09020CF1AE
:1018B000080C0B0F04BF09010CF1040C8B0F04BFC3
:1018C00089000CF1020CCB0F04BF49000CF1010C94
:1018D000CCF12003A0EB0C0022FA03F302FA0CF285
:1018E00041EA030100F10100704720F07F4C80EADB
:1018F000030023F07F47ACEB070303F57C5300F0B4
:10190000004003F1FF032DE980494FEA154B09B46C
:101910004FEA144325EA0B4E24EA03480FF204264B
:1019200006EB132749083E785FEA320203FB06679D
:10193000C7F5000707FB06F64FEA54374FEAD646CD
:1019400006F1020607FB066CCCF1005C4FEA1C476F
:101950002CEA074C07FB06F40CFB06F504EB1546D6
:101960004FEA961634BF00204FF000404FEAD137BF
:1019700006FB07FC4FEA1C4C0CFB0BF7D21B03FBCE
:101980000CF761EB07010CFB0EF7B0EB074072EBB5
:1019900017420CFB08F734BFA2EB0742B2EB074239
:1019A00061EB17414FEA0C444FEA910706FB07FC35
:1019B0004FEA1C4C0CFB0BF7B0EBC74072EB5732F5
:1019C00003FB0CF734BFA2EBC742B2EBC74261EB9B
:1019D00057310CFB0EF7B0EBC70072EB57720CFBE4
:1019E00008F734BFA2EBC702B2EBC70261EB577135
:1019F000039F4FEA816141EA921104EBCC044FEA64
:101A0000D1374FEA826206FB07FC42EA90124FEAA6
:101A100080604FEA1C4C0CFB0BF7D21B03FB0CF74E
:101A200061EB07010CFB0EF7B0EB074072EB1742BE
:101A30000CFB08F734BFA2EB0742B2EB074261EBA5
:101A400017414FEA8C554FEA910704EB9C2406FBA3
:101A500007FC4FEA1C4C0CFB0BF7B0EBC74072EBDA
:101A6000573203FB0CF734BFA2EBC742B2EBC742BD
:101A700061EB57310CFB0EF7B0EBC70072EB5772FE
:101A80000CFB08F734BFA2EBC702B2EBC70261EB55
:101A9000577115EB4C254FEA816141EA92114FEAEB
:101AA00082624FEAD13742EA901206FB07FC44F10A
:101AB00000044FEA80604FEA1C4C0CFB0BF7D21B72
:101AC00003FB0CF761EB07010CFB0EF7B0EB0740D3
:101AD00072EB17420CFB08F734BFA2EB0742B2EBE4
:101AE000074261EB174115EB1C154FEA813141EAC2
:101AF00092414FEA823242EA90424FEA80304FEA06
:101B00000C7644F1000448EA03434EEA0B484FF0D8
:101B1000000EB2EB080C71EB030724BF6246394696
:101B20004EEB0E0E4FF0000B0018524149414BEBAB
:101B30000B0BB2EB080C71EB03077BF1000B24BF1E
:101B4000624639464EEB0E0E4FF0000B0018524124
:101B500049414BEB0B0BB2EB080C71EB03077BF12C
:101B6000000B24BF624639464EEB0E0E51EA0207C7
:101B700018BF46F0010616EB0E7655F1000254F13F
:101B8000000103D5BDE88901BDE80088BDE88901F1
:101B9000BDE80048B619524141EB0101A3F1010330
:101BA000704780807F7E7D7C7B7A797877767675CA
:101BB0007473727171706F6E6E6D6C6C6B6A6A6942
:101BC0006868676666656464636362616160605FDC
:101BD0005F5E5E5D5D5C5C5B5B5A5A595958585755
:101BE00057565655555554545353525252515150BD
:101BF00050504F4F4F4E4E4D4D4D4C4C4C4B4B4B10
:101C00004A4A4A4949494848484747474746464655
:101C10004545454444444443434343424242424190
:101C20004141002B26D4770021D01CB54FEA37075D
:101C300003B44FF010004FF010014FF000000FBC44
:101C4000BDE810400BF1010BBBF1010F08BF5FEACB
:101C5000170722BF12F1010211F101014FF00041FB
:101C600043F1000300F0004043EA00007047F9D35D
:101C70005708DAE746EA064613F1400F4FEA1646E0
:101C80001FDD13F1200FDFBF16430A46002120336A
:101C90005B42C8D0C3F1200746EA064602FA07F7BE
:101CA0004FEA164646EA0706C3F1200722FA03F276
:101CB00001FA07F721FA03F14FF0000342EA0702A5
:101CC000B1E746EA020646EA06464FEA164646EA03
:101CD0000106BCBF46EA0646360C4FF000034FF043
:101CE00000024FF000019EE72DE9C048934630B452
:101CF00091E8380007C831EA400C48BF34EA430C89
:101D000003D5FFF7F2FDFFF78CFFF0BCBDE80088BC
:101D10002DE9C048934630B491E8380007C810F068
:101D2000804F08BF13F0804F03D100F005F8FFF794
:101D300078FFF0BCBDE8008820F07F4780EA030010
:101D400023F07F4C07EB0C03A3F57C5300F000401D
:101D5000A3F1FE0392F0000F00F0B38095F0000FA6
:101D600000F077802DE901494FEA11404FEA14460F
:101D700021EA004800FB06FC24EA064708FB06F6B9
:101D800007FB08F800FB07F718EB06484CEB164C6E
:101D90004FEA124B18EB07484FEA15464CEB174039
:101DA00022EA0B4E0BFB06FC25EA06470EFB06F665
:101DB00007FB0EFE0BFB07F71EEB064E4CEB164C1B
:101DC0004FF000061EEB074E4CEB174B18EB0B08C1
:101DD00040F1000018EB0E0B58EB000840F100003A
:101DE0008F1A4FF000013CBFC943661B14BFB5EB0F
:101DF000040C00213CBFC943F61B4FEA17444EEACE
:101E00008E0E27EA04454FEA1C4704FB07622CEAC2
:101E1000074C05FB07F70CFB05F604FB0CFC16EB67
:101E2000074642EB174216EB0C4642EB1C421BEBFB
:101E3000060658EB0202414146EA9E0601D5BDE87E
:101E40000189B619524141EB0101A3F10103BDE83B
:101E500001894FEA14454FEA114724EA054621EA71
:101E6000074C05FB07F406FB07F70CFB06F105FB27
:101E70000CFC11EB074144EB17444FEA124711EBFE
:101E80000C4144EB1C4422EA074C05FB07F206FB1D
:101E900007F70CFB06F605FB0CFC16EB074642EBBE
:101EA000174216EB0C4642EB1C456A1854F1000130
:101EB00048BF7047B619524141EB0101A3F101033C
:101EC000704795F0000F37D04FEA11424FEA1447A0
:101ED00021EA024624EA074C02FB07F106FB07F75A
:101EE0000CFB06F402FB0CFC14EB074441EB17411E
:101EF0004FEA154714EB0C4441EB1C4125EA074C13
:101F000002FB07F506FB07F70CFB06F602FB0CFCD1
:101F100016EB074645EB174516EB0C4645EB1C4206
:101F2000121951F1000148BF7047B619524141EBF7
:101F30000101A3F1010370474FEA14454FEA11472D
:101F400024EA054621EA074C05FB07F106FB07F7E3
:101F50000CFB06F24FF0000605FB0CFC12EB0742EF
:101F600041EB174112EB0C4251EB1C4148BF70474B
:101F7000921841EB0101A3F101037047490050EAB7
:101F8000C12018BF04204A0D18BF40F0010040F2E4
:101F9000FF72B2EB515F08BF40F00200012808BF9A
:101FA0000520704730380A2801D2012070470020F0
:101FB0007047000010B500290AD00878002807D023
:101FC00005487844FFF7D8FB002801D0002010BD59
:101FD0000248784410BD0000A60500009E050000E0
:101FE00021F00042A2F16052B2F5801F01F00043DF
:101FF00028BFD2F17F6C0BD95FEA001C43EAC20212
:1020000042EB507018BF704728BF20F001007047A6
:10201000B2F5801FBCBF184670474FEA410C1CF553
:10202000001F02D2084600F03EBA70B500F062F917
:1020300000000089FFF7F6BF4FF00040A0F58000D8
:10204000704700002DE9C04130B4DFF8A0C23CEA7F
:10205000111418BF3CEA131400F0EC8081EA030568
:102060001CEA111444EAD57418BF1CEA131500F0D9
:10207000C780A4EB05044FF0004545EAC12145EABD
:10208000C32341EA505143EA525304F17F74994209
:1020900004F500344FEAC0204FEAC22208BF904244
:1020A00000F09C804FEA13650FF24016765D4FEA10
:1020B000134506FB05F7C7F1807706FB07F74FEAE4
:1020C000D737A7FB03687642C8F58038A7FB06CE52
:1020D00038BFA8F1010807FB08E64FF0000EA6FB89
:1020E000028CE6FB03CEDCF1000CCEF1004E38BFD3
:1020F000AEF1010EA6FB0C584FF000074FF00005A3
:10210000E6FB0E87A1FB08C6A0FB07CE16EB0E066A
:1021100045F10005E1FB076515F1E04E7EBFA4F532
:1021200080345FEA46066D4116F1800745F10005EF
:102130004FEA17274FEA066647EA0567A6F1DE462B
:10214000B6F1805F4FEA15251FD9384624F0010CFF
:1021500005EBC471BCF1FE6F01EB0C1102D8F0BCB1
:10216000BDE8008124425CBF01F5801E9EEAC47F69
:1021700002D4F0BCBDE80081244238D4F0BCA1F107
:10218000C041BDE8004100F003B94FEAD22242EA63
:1021900043524FEAD323A7FB02864FEAD02040EAFE
:1021A000415007FB03661EEA0E0F4FEAD12105FBE3
:1021B000026658BFA6EB0056B6EB00564FEA520E29
:1021C0004EEAC37E18EB0E0E56EB530EBDD518EB40
:1021D00002085E417F1C55F10005B6E74FF48015FB
:1021E0004FF000074FF000064FF00008ADE7F0BCDD
:1021F0004FF0000001F1C04101F00041BDE8008155
:1022000011EA0C1F0CEA131500D00CE013EA0C1FA6
:1022100000F025804FF00000F0BC81EA030101F0DE
:102220000041BDE80081F0BCBDE8004181EA030146
:1022300000F0AEB8F0BCBDE8004170B500F05AF84F
:10224000097EFC3E00F007B881EA03014FF0000070
:1022500001F00041704781EA030100F099B8F0BC39
:10226000BDE800414FF0000021497047FFFDFBF938
:10227000F7F5F4F2F0EEEDEBE9E8E6E4E3E1E0DEB9
:10228000DDDBDAD8D7D5D4D3D1D0CFCDCCCBCAC82B
:10229000C7C6C5C4C2C1C0BFBEBDBCBBBAB9B8B752
:1022A000B6B5B4B3B2B1B0AFAEADACABAAA9A8A845
:1022B000A7A6A5A4A3A3A2A1A09F9F9E9D9C9C9B13
:1022C0009A999998979796959594939392919190BE
:1022D0008F8F8E8E8D8C8C8B8B8A8989888887874F
:1022E0008685858484838382828181800000FF07C4
:1022F0000000F87F0EF1020E2EF0030E5EF8046B64
:10230000364205D4012A43EB030515F5001F12D808
:10231000012841EB010C1CF5001F0CD80ED14FEA2F
:10232000D17C15F5001F0CEB4C0C0CF1020C08BF16
:102330004CEBD37C04E04FF0080C01E04FEAD37C77
:102340000CEB4C0526FA05F606F00706B6F1040C70
:1023500006D20EEB860CBDE870404CF0010C6047D5
:10236000DFE80CF0090B02024FF000414FF00000D3
:10237000A1F5002170BD19461046012851EB01045A
:1023800018BFD4F5001484BF002001F0004170BDD7
:102390000808A0F500114FEA3101704743004FEAE9
:1023A000D30C4FEA3C0C43401FBF40070CF1605177
:1023B00013F0FE4F70471CF0006F03D100200CF0AB
:1023C000004170470CF0004343EA507010B540EAFA
:1023D000CC0000F022F800BF000000924FEA00019C
:1023E000FFF7D6BF4FF000414FF00000A1F50021EC
:1023F00070470000B0FA80F310FA03F2C3F19D03B6
:102400000AD0D90501EB1220530638BF704700F1FE
:10241000010008BF20F0010070470EF1020E2EF0FF
:10242000030E5EF8044B244204D44FEA4102B2F199
:102430007F4F11D84FEA4003B3F17F4F0CD80ED134
:102440004FEAD07CB2F17F4F0CEB4C0C0CF1020C3C
:1024500008BF4CEBD17C04E04FF0080C01E04FEAE0
:10246000D17C0CEB4C0324FA03F404F00704B4F120
:10247000040C06D20EEB840CBDE810404CF0010CAD
:102480006047DFE80CF0070802024FF00040A0F5BB
:10249000800010BD0846420018BFD2F1807288BF8C
:1024A00000F0004010BDFF2141EAD050C005704748
:1024B000FEF7DDBE02400000000000A000000000AA
:1024C00005400000000000C8000000000C400000B3
:1024D0000000409C00000000194000000020BCBE2D
:1024E0000000000034400000BFC91B8E0000000443
:1024F000B5400000504BCFD06607E2CF010000008E
:102500006C4100003E8251AADFEEA73401000000BA
:10251000D9420000DCB5A0E23A301F97FFFFFFFF71
:10252000B4450000FD25A0C8E9A3C14FFFFFFFFF90
:10253000FF3F00000000008000000000FF3F00009F
:10254000000000800000000084250008000000203A
:102550002C00000028010008B02500082C000020F5
:1025600064060000440100081C0000004300000055
:10257000F8FFFFFF0C0000000E0000000F0000003D
:102580002E00000000A24A0400000000000000002D
:102590000102030406070809000000000102030409
:1025A00001020304060708090204060800000000EF
:04000005080000ED02
:00000001FF
